{
  "_format": "hh-sol-artifact-1",
  "contractName": "Ballot",
  "sourceName": "contracts/Ballot.sol",
  "abi": [
    {
      "inputs": [
        {
          "internalType": "bytes32[]",
          "name": "proposalNames",
          "type": "bytes32[]"
        }
      ],
      "stateMutability": "nonpayable",
      "type": "constructor"
    },
    {
      "inputs": [],
      "name": "chairperson",
      "outputs": [
        {
          "internalType": "address",
          "name": "",
          "type": "address"
        }
      ],
      "stateMutability": "view",
      "type": "function"
    },
    {
      "inputs": [
        {
          "internalType": "address",
          "name": "to",
          "type": "address"
        }
      ],
      "name": "delegate",
      "outputs": [],
      "stateMutability": "nonpayable",
      "type": "function"
    },
    {
      "inputs": [],
      "name": "getAllProposals",
      "outputs": [
        {
          "components": [
            {
              "internalType": "bytes32",
              "name": "name",
              "type": "bytes32"
            },
            {
              "internalType": "uint256",
              "name": "voteCount",
              "type": "uint256"
            }
          ],
          "internalType": "struct Ballot.Proposal[]",
          "name": "",
          "type": "tuple[]"
        }
      ],
      "stateMutability": "view",
      "type": "function"
    },
    {
      "inputs": [
        {
          "internalType": "address",
          "name": "voter",
          "type": "address"
        }
      ],
      "name": "giveRightToVote",
      "outputs": [],
      "stateMutability": "nonpayable",
      "type": "function"
    },
    {
      "inputs": [
        {
          "internalType": "uint256",
          "name": "",
          "type": "uint256"
        }
      ],
      "name": "proposals",
      "outputs": [
        {
          "internalType": "bytes32",
          "name": "name",
          "type": "bytes32"
        },
        {
          "internalType": "uint256",
          "name": "voteCount",
          "type": "uint256"
        }
      ],
      "stateMutability": "view",
      "type": "function"
    },
    {
      "inputs": [
        {
          "internalType": "uint256",
          "name": "proposal",
          "type": "uint256"
        }
      ],
      "name": "vote",
      "outputs": [],
      "stateMutability": "nonpayable",
      "type": "function"
    },
    {
      "inputs": [
        {
          "internalType": "address",
          "name": "",
          "type": "address"
        }
      ],
      "name": "voters",
      "outputs": [
        {
          "internalType": "uint256",
          "name": "weight",
          "type": "uint256"
        },
        {
          "internalType": "bool",
          "name": "voted",
          "type": "bool"
        },
        {
          "internalType": "address",
          "name": "delegate",
          "type": "address"
        },
        {
          "internalType": "uint256",
          "name": "vote",
          "type": "uint256"
        }
      ],
      "stateMutability": "view",
      "type": "function"
    },
    {
      "inputs": [],
      "name": "winnerName",
      "outputs": [
        {
          "internalType": "bytes32",
          "name": "winnerName_",
          "type": "bytes32"
        }
      ],
      "stateMutability": "view",
      "type": "function"
    },
    {
      "inputs": [],
      "name": "winningProposal",
      "outputs": [
        {
          "internalType": "uint256",
          "name": "winningProposal_",
          "type": "uint256"
        }
      ],
      "stateMutability": "view",
      "type": "function"
    }
  ],
  "bytecode": "0x608060405234801561001057600080fd5b506040516115a33803806115a38339818101604052810190610032919061030e565b336000806101000a81548173ffffffffffffffffffffffffffffffffffffffff021916908373ffffffffffffffffffffffffffffffffffffffff16021790555060018060008060009054906101000a900473ffffffffffffffffffffffffffffffffffffffff1673ffffffffffffffffffffffffffffffffffffffff1673ffffffffffffffffffffffffffffffffffffffff1681526020019081526020016000206000018190555060005b8151811015610164576002604051806040016040528084848151811061010657610105610357565b5b60200260200101518152602001600081525090806001815401808255809150506001900390600052602060002090600202016000909190919091506000820151816000015560208201518160010155505080806001019150506100dd565b5050610386565b6000604051905090565b600080fd5b600080fd5b600080fd5b6000601f19601f8301169050919050565b7f4e487b7100000000000000000000000000000000000000000000000000000000600052604160045260246000fd5b6101cd82610184565b810181811067ffffffffffffffff821117156101ec576101eb610195565b5b80604052505050565b60006101ff61016b565b905061020b82826101c4565b919050565b600067ffffffffffffffff82111561022b5761022a610195565b5b602082029050602081019050919050565b600080fd5b6000819050919050565b61025481610241565b811461025f57600080fd5b50565b6000815190506102718161024b565b92915050565b600061028a61028584610210565b6101f5565b905080838252602082019050602084028301858111156102ad576102ac61023c565b5b835b818110156102d657806102c28882610262565b8452602084019350506020810190506102af565b5050509392505050565b600082601f8301126102f5576102f461017f565b5b8151610305848260208601610277565b91505092915050565b60006020828403121561032457610323610175565b5b600082015167ffffffffffffffff8111156103425761034161017a565b5b61034e848285016102e0565b91505092915050565b7f4e487b7100000000000000000000000000000000000000000000000000000000600052603260045260246000fd5b61120e806103956000396000f3fe608060405234801561001057600080fd5b50600436106100935760003560e01c8063609ff1bd11610066578063609ff1bd1461011f5780639e7b8d611461013d578063a3ec138d14610159578063cceb68f51461018c578063e2ba53f0146101aa57610093565b80630121b93f14610098578063013cf08b146100b45780632e4176cf146100e55780635c19a95c14610103575b600080fd5b6100b260048036038101906100ad9190610b05565b6101c8565b005b6100ce60048036038101906100c99190610b05565b61030e565b6040516100dc929190610b5a565b60405180910390f35b6100ed610342565b6040516100fa9190610bc4565b60405180910390f35b61011d60048036038101906101189190610c0b565b610366565b005b610127610700565b6040516101349190610c38565b60405180910390f35b61015760048036038101906101529190610c0b565b610782565b005b610173600480360381019061016e9190610c0b565b610939565b6040516101839493929190610c6e565b60405180910390f35b610194610996565b6040516101a19190610daf565b60405180910390f35b6101b2610a79565b6040516101bf9190610dd1565b60405180910390f35b6000600160003373ffffffffffffffffffffffffffffffffffffffff1673ffffffffffffffffffffffffffffffffffffffff16815260200190815260200160002090506000816000015403610252576040517f08c379a000000000000000000000000000000000000000000000000000000000815260040161024990610e49565b60405180910390fd5b8060010160009054906101000a900460ff16156102a4576040517f08c379a000000000000000000000000000000000000000000000000000000000815260040161029b90610eb5565b60405180910390fd5b60018160010160006101000a81548160ff0219169083151502179055508181600201819055508060000154600283815481106102e3576102e2610ed5565b5b906000526020600020906002020160010160008282546103039190610f33565b925050819055505050565b6002818154811061031e57600080fd5b90600052602060002090600202016000915090508060000154908060010154905082565b60008054906101000a900473ffffffffffffffffffffffffffffffffffffffff1681565b6000600160003373ffffffffffffffffffffffffffffffffffffffff1673ffffffffffffffffffffffffffffffffffffffff16815260200190815260200160002090508060010160009054906101000a900460ff16156103fb576040517f08c379a00000000000000000000000000000000000000000000000000000000081526004016103f290610fb3565b60405180910390fd5b3373ffffffffffffffffffffffffffffffffffffffff168273ffffffffffffffffffffffffffffffffffffffff1603610469576040517f08c379a00000000000000000000000000000000000000000000000000000000081526004016104609061101f565b60405180910390fd5b5b600073ffffffffffffffffffffffffffffffffffffffff16600160008473ffffffffffffffffffffffffffffffffffffffff1673ffffffffffffffffffffffffffffffffffffffff16815260200190815260200160002060010160019054906101000a900473ffffffffffffffffffffffffffffffffffffffff1673ffffffffffffffffffffffffffffffffffffffff16146105d857600160008373ffffffffffffffffffffffffffffffffffffffff1673ffffffffffffffffffffffffffffffffffffffff16815260200190815260200160002060010160019054906101000a900473ffffffffffffffffffffffffffffffffffffffff1691503373ffffffffffffffffffffffffffffffffffffffff168273ffffffffffffffffffffffffffffffffffffffff16036105d3576040517f08c379a00000000000000000000000000000000000000000000000000000000081526004016105ca9061108b565b60405180910390fd5b61046a565b60018160010160006101000a81548160ff021916908315150217905550818160010160016101000a81548173ffffffffffffffffffffffffffffffffffffffff021916908373ffffffffffffffffffffffffffffffffffffffff1602179055506000600160008473ffffffffffffffffffffffffffffffffffffffff1673ffffffffffffffffffffffffffffffffffffffff16815260200190815260200160002090508060010160009054906101000a900460ff16156106db57816000015460028260020154815481106106af576106ae610ed5565b5b906000526020600020906002020160010160008282546106cf9190610f33565b925050819055506106fb565b81600001548160000160008282546106f39190610f33565b925050819055505b505050565b6000806000905060005b60028054905081101561077d57816002828154811061072c5761072b610ed5565b5b9060005260206000209060020201600101541115610770576002818154811061075857610757610ed5565b5b90600052602060002090600202016001015491508092505b808060010191505061070a565b505090565b60008054906101000a900473ffffffffffffffffffffffffffffffffffffffff1673ffffffffffffffffffffffffffffffffffffffff163373ffffffffffffffffffffffffffffffffffffffff1614610810576040517f08c379a00000000000000000000000000000000000000000000000000000000081526004016108079061111d565b60405180910390fd5b600160008273ffffffffffffffffffffffffffffffffffffffff1673ffffffffffffffffffffffffffffffffffffffff16815260200190815260200160002060010160009054906101000a900460ff16156108a0576040517f08c379a000000000000000000000000000000000000000000000000000000000815260040161089790611189565b60405180910390fd5b6000600160008373ffffffffffffffffffffffffffffffffffffffff1673ffffffffffffffffffffffffffffffffffffffff16815260200190815260200160002060000154146108ef57600080fd5b60018060008373ffffffffffffffffffffffffffffffffffffffff1673ffffffffffffffffffffffffffffffffffffffff1681526020019081526020016000206000018190555050565b60016020528060005260406000206000915090508060000154908060010160009054906101000a900460ff16908060010160019054906101000a900473ffffffffffffffffffffffffffffffffffffffff16908060020154905084565b6060600060028054905067ffffffffffffffff8111156109b9576109b86111a9565b5b6040519080825280602002602001820160405280156109f257816020015b6109df610aad565b8152602001906001900390816109d75790505b50905060005b600280549050811015610a715760028181548110610a1957610a18610ed5565b5b906000526020600020906002020160405180604001604052908160008201548152602001600182015481525050828281518110610a5957610a58610ed5565b5b602002602001018190525080806001019150506109f8565b508091505090565b60006002610a85610700565b81548110610a9657610a95610ed5565b5b906000526020600020906002020160000154905090565b604051806040016040528060008019168152602001600081525090565b600080fd5b6000819050919050565b610ae281610acf565b8114610aed57600080fd5b50565b600081359050610aff81610ad9565b92915050565b600060208284031215610b1b57610b1a610aca565b5b6000610b2984828501610af0565b91505092915050565b6000819050919050565b610b4581610b32565b82525050565b610b5481610acf565b82525050565b6000604082019050610b6f6000830185610b3c565b610b7c6020830184610b4b565b9392505050565b600073ffffffffffffffffffffffffffffffffffffffff82169050919050565b6000610bae82610b83565b9050919050565b610bbe81610ba3565b82525050565b6000602082019050610bd96000830184610bb5565b92915050565b610be881610ba3565b8114610bf357600080fd5b50565b600081359050610c0581610bdf565b92915050565b600060208284031215610c2157610c20610aca565b5b6000610c2f84828501610bf6565b91505092915050565b6000602082019050610c4d6000830184610b4b565b92915050565b60008115159050919050565b610c6881610c53565b82525050565b6000608082019050610c836000830187610b4b565b610c906020830186610c5f565b610c9d6040830185610bb5565b610caa6060830184610b4b565b95945050505050565b600081519050919050565b600082825260208201905092915050565b6000819050602082019050919050565b610ce881610b32565b82525050565b610cf781610acf565b82525050565b604082016000820151610d136000850182610cdf565b506020820151610d266020850182610cee565b50505050565b6000610d388383610cfd565b60408301905092915050565b6000602082019050919050565b6000610d5c82610cb3565b610d668185610cbe565b9350610d7183610ccf565b8060005b83811015610da2578151610d898882610d2c565b9750610d9483610d44565b925050600181019050610d75565b5085935050505092915050565b60006020820190508181036000830152610dc98184610d51565b905092915050565b6000602082019050610de66000830184610b3c565b92915050565b600082825260208201905092915050565b7f486173206e6f20726967687420746f20766f7465000000000000000000000000600082015250565b6000610e33601483610dec565b9150610e3e82610dfd565b602082019050919050565b60006020820190508181036000830152610e6281610e26565b9050919050565b7f416c726561647920766f7465642e000000000000000000000000000000000000600082015250565b6000610e9f600e83610dec565b9150610eaa82610e69565b602082019050919050565b60006020820190508181036000830152610ece81610e92565b9050919050565b7f4e487b7100000000000000000000000000000000000000000000000000000000600052603260045260246000fd5b7f4e487b7100000000000000000000000000000000000000000000000000000000600052601160045260246000fd5b6000610f3e82610acf565b9150610f4983610acf565b9250828201905080821115610f6157610f60610f04565b5b92915050565b7f596f7520616c726561647920766f7465642e0000000000000000000000000000600082015250565b6000610f9d601283610dec565b9150610fa882610f67565b602082019050919050565b60006020820190508181036000830152610fcc81610f90565b9050919050565b7f53656c662d64656c65676174696f6e20697320646973616c6c6f7765642e0000600082015250565b6000611009601e83610dec565b915061101482610fd3565b602082019050919050565b6000602082019050818103600083015261103881610ffc565b9050919050565b7f466f756e64206c6f6f7020696e2064656c65676174696f6e2e00000000000000600082015250565b6000611075601983610dec565b91506110808261103f565b602082019050919050565b600060208201905081810360008301526110a481611068565b9050919050565b7f4f6e6c79206368616972706572736f6e2063616e20676976652072696768742060008201527f746f20766f74652e000000000000000000000000000000000000000000000000602082015250565b6000611107602883610dec565b9150611112826110ab565b604082019050919050565b60006020820190508181036000830152611136816110fa565b9050919050565b7f54686520766f74657220616c726561647920766f7465642e0000000000000000600082015250565b6000611173601883610dec565b915061117e8261113d565b602082019050919050565b600060208201905081810360008301526111a281611166565b9050919050565b7f4e487b7100000000000000000000000000000000000000000000000000000000600052604160045260246000fdfea2646970667358221220c574aad8c46661b5e69d377f91b614659c13100b3a0e6c52ce3b78e7484ee24464736f6c634300081b0033",
  "linkReferences": {},
  "deployedLinkReferences": {}
}